:100000006F30A01413000000130000001300000064
:100010001300000013000000130000001300000094
:100020001300000013000000130000001300000084
:08003000130000007300100032
:100038000000000000000000D6210000E6210000BA
:1000480000000000903000000000000000000000E8
:100058009230000094300000000000000000000012
:1000680096300000000000009830000000000000FA
:100078009A3000009C3000009E300000A030000044
:10008800A2300000A4300000A6300000A830000014
:10009800AA300000AC300000AE300000B0300000E4
:1000A800B2300000B4300000B6300000B8300000B4
:1000B800BA300000BC300000BE300000C030000084
:1000C800C2300000C4300000C6300000C830000054
:1000D800CA300000CC300000CE300000D030000024
:1000E800F4210000D43000006A220000D83000005B
:1000F800DA300000DC300000DE300000E0300000C4
:10010800E2300000E4300000E6300000E830000093
:10011800EA300000EC300000EE300000F030000063
:10012800F2300000F4300000F6300000F830000033
:10013800FA300000FC300000FE3000000031000002
:1001480002310000043100000631000008310000CF
:100158000A3100000C3100000E310000103100009F
:10016800123100001431000016310000183100006F
:100178001A3100001C3100001E310000203100003F
:100188002231000018270000263100002831000025
:100198002A3100002C3100002E31000030310000DF
:1001A80032310000343100003631000038310000AF
:1001B8003A3100003C3100003E310000403100007F
:1001C800423100004431000046310000483100004F
:1001D8000000000000000000000000000000000017
:1001E8000000000000000000000000000000000007
:0801F8000000000000000000FF
:100200003D432A876373C3029377F700BDEFADE5E3
:10021000937606FF3D8ABA960CC34CC30CC74CC7F5
:100220004107E36BD7FE11E28280B306C3408A0622
:100230009702000096966780A6002307B700A306E2
:10024000B7002306B700A305B7002305B700A30432
:10025000B7002304B700A303B7002303B700A3022A
:10026000B7002302B700A301B7002301B700A30022
:10027000B7002300B700828093F5F50F93968500B1
:10028000D58D93960501D58D61B79396270097027A
:10029000000096968682E78086FA9680C1171D8FA9
:1002A0003E96E374C3F8A5B737370040B746002041
:1002B000374600209305F00711E18280832707C0AD
:1002C000034806E293F7F707A380F6E263F4070119
:1002D0002320B7C09947010001000100010001007F
:1002E000FD17C207C183E5FB7D1542054181E9B7D2
:1002F0001165411185451305C50706C6EF30C033AA
:1003000085450545EF30403385450545EF30A03440
:1003100005458545EF306030B2400145410182809E
:100320000111054506CE02C402C6EF30C011854555
:1003300037050040EF3060609307C0122314F100CE
:1003400085472305F100280085473EC6EF30401061
:10035000F2400561828001113705004006CE02C2DD
:1003600002C423160100EF30A03E930740063EC2B0
:100370004C0093070009370500403EC4EF30C04CE5
:10038000854537050040EF30405B0546854537051C
:100390000040EF302059854537050040EF30C0560A
:1003A000F24005618280011126CAAA84056522CC2B
:1003B000130505802E84854506CE32C6EF30A02970
:1003C0002685EF30C06D32463285EF308068228559
:1003D000EF3060691305F007EF30406DEF30E06DEE
:1003E0006244F240D24405616F30406AB717002082
:1003F000238C0758B717002023890758B717002008
:10040000239A0758B7170020A38C07580D47B71732
:100410000020A380E75AB717002023AE0758B7176C
:10042000002041112380075AB717002006C6238DEC
:100430000758EF10102BB240373500201306800408
:100440008145130545DC410165BB797122D48545A1
:100450002A84116506D602C602C802CA02CC231E2F
:100460000100EF30401FB70704013EC6231C810086
:10047000B7070002374400403ECA6C0093070008EB
:1004800013050480231DF10002C8EF30602285456A
:1004900013050480EF30002B85476314F500835764
:1004A000C48037450040814513050580EF30E025C5
:1004B000B25022544561828037170140832747C0DC
:1004C000B706B0B4B207B183D58F2322F7C0374740
:1004D00000408357078093E707042310F78082804A
:1004E00037170140832747C0B7063038B207B183BA
:1004F000D58F2322F7C091672328F7C037470040E4
:1005000083570780C207C18393F7F7FBC207C183F4
:100510002310F7808280B7370020938747DC0DE9EE
:1005200003D7670183D6A701636FD70A83D6A701D4
:1005300003D76701158F42074183239BE70083D6CA
:10054000A70103D78701369742074183239CE70021
:1005500003D767014207418351E737E700E0B70659
:1005600020002324D7182324D7182324D71803D7EF
:1005700027009D4606073E972313070003D7270051
:100580000507420741832391E70003D7270063F45F
:10059000E6002391070003D7470085467D174207F1
:1005A00041832392E70003C7C7026397E60203D79C
:1005B0004700954663E2E602373702408346374EEE
:1005C00093F6C60FA301D74E8346374E93F6F60F28
:1005D000A301D74E23860702B7E700E037072000C4
:1005E00023A4E7108280239B07009DB7B737002024
:1005F000138647DC0358C60137370020930607E20D
:10060000C2962380A6008356C601938747DC130752
:1006100007E28506C206C182231ED6008356C601A4
:10062000056663E4C600239E070083D607020566BD
:100630008506C206C1822390D70283D6C701BA9627
:100640002380B60083D6C7018506C206C182239ED9
:10065000D70083D6C70163E4C600239E070083D674
:100660000702A1818506C206C1822390D70283D6E4
:10067000C70136972300B70003D7C7018566050772
:1006800042074183239EE70003D7C7016364D70075
:10069000239E070003D707020507420741832390E3
:1006A000E7028280411126C2B734002006C622C468
:1006B0004AC0938744DC03C767021377F70F0DC363
:1006C00003D787029306703E63F6E6002394070281
:1006D00023830702B24022449244024941018280AE
:1006E000938444DC83D70402C207C183E5D703D4D3
:1006F000040283D7818042041307002041806310E5
:10070000F7089307F01F63E3870883D724021307D2
:1007100030066370F7082391040203D7E40185676C
:10072000998F63F5870013940701418045D483D5E1
:10073000E401B7370020938707E213890186BE954D
:10074000228613850186EF30004B85472392840271
:100750002383F40223940402B737024023AE2745D3
:10076000239E874C03C7E74D1377C70F238FE74CB2
:1007700003C7E74D1377F70F238FE74CA1BF93070C
:10078000F003E3F487F81304000441BF13040020CE
:1007900069B7014459B7797122D4373400209307DF
:1007A00044DC83D747004AD006D6C20726D24ECEB5
:1007B00052CC56CA5AC85EC662C466C2C18313040C
:1007C00044DC37090020FDCF83576401C207C18391
:1007D00095E3835724008607A29783D76700C20753
:1007E000C183231BF40083572400A607C207C183DB
:1007F000231CF4008547230AF90A83578401B72490
:1008000000209384449CB7390020BE94130BD0037E
:10081000371A0020B71B0020938909E2856A371C2C
:10082000002083576401C207C18389C7835704022C
:10083000637FFB14B7E700E03707200023A4E71825
:1008400023A4E71883576401C207C18385EF835748
:1008500024001D478607A29723930700835724008F
:100860008507C207C1832311F400835724006374F2
:10087000F7002311040083574400FD17C207C1830A
:100880002312F4008347C40205476317F702835716
:10089000440015476362F702B737024003C7374E7B
:1008A0001377C70FA381E74E03C7374E1377F70FB0
:1008B000A381E74E23060402B7E700E037072000D4
:1008C00023A4E7108347490B93F7F70FC5C7835459
:1008D00004029307D003C204C18063FB971A99678F
:1008E00085078355E4012390F186B737002093876D
:1008F00007E2BE951306E00313852186EF30A02F93
:100900008357E40105679387E703C207C183231F69
:10091000F4008357E40163E4E700231F04008357D6
:10092000040213070004938727FCC207C183231026
:10093000F402230A090AB7370240239EE74C03C793
:10094000E74D1377C70F238FE74C03C7E74D1377A6
:10095000F70F238FE74C13044006B734024083C7D8
:10096000E44D898B81EB7D14420405454180EF30D5
:10097000801875F4B250225492540259F249624AD6
:10098000D24A424BB24B224C924C45618280930634
:10099000CA599842850403C5F4FF930CCA5993873A
:1009A000AB5951EF1357750013060C5A2300E6009C
:1009B00013576500058B2380E70003470600137774
:1009C000F70F1DC31375F50388C28357840185078C
:1009D000C207C183231CF40083576401FD17C207BB
:1009E000C183231BF40035BD83C7070093F7F70FBE
:1009F000A1C7EF10C0558357C401939C070193DC36
:100A00000C01EF10A05AB3873C012380A700835745
:100A1000C4018507C207C183231EF4008357C401A4
:100A200063E45701231E0400835704028507C207AD
:100A3000C1832310F40251BFEF10605179B783C70F
:100A4000070093F7F70FB1C3EF10C0648357C401D9
:100A5000CE972380A7008357C4018507C207C183AF
:100A6000231EF4008357C40163E45701231E0400CE
:100A7000835704028507C207C1832310F40283A7AA
:100A80000C00FD1723A0FC0089B7EF100053C5BF71
:100A9000B71700209387475A94432547E37DD7EA49
:100AA00023A00700996785078355E4012390F18609
:100AB000B7370020938707E2BE95268613852186E7
:100AC000EF3060138357E4010567A697C207C1831F
:100AD000231FF4008357E40163E4E700231F0400AD
:100AE00083570402858FC207C18389042310F4024F
:100AF000C204230A090AC180B7370240239E974CDB
:100B00003DBDB737002013074010239607E09387B9
:100B1000C7E02391E70009472393E70005472394A3
:100B2000E700130700202395E70021472396E700FD
:100B30001D472398E70023920700239707000567C6
:100B4000B7370020938747DC130787382398E702DD
:100B50002395E702828039718545214506DE22DC36
:100B600026DA4AD84ED602C002C202C402C602C861
:100B700002CA02CC231E0100EF20102C854511650E
:100B8000EF20702D85453165EF20B030814531650E
:100B9000EF2030303744004083574482B71401407F
:100BA000856593E717002312F482138504C0EF20B4
:100BB000500985670D492310F1008A85C1471385C7
:100BC00004C03EC44AC2EF20A07B8967E1498A8500
:100BD000138504C02310F1004EC44AC2EF20407AAE
:100BE00091672310F1008A859147138504C03EC4A4
:100BF000EF200079E1778A85138504C0130404800F
:100C00002310F1004EC44AC2EF208077854522852B
:100C1000EF209031B737002003D7C7E09387C7E0B4
:100C20006C002316E10003D7270022852317E1007B
:100C300003D747002318E10003D767002319E10019
:100C400003D78700231AE10003D7A700231BE10085
:100C500003D7C700231CE10003D7E70083D70701B0
:100C6000231DE100231EF100EF20902485452285FD
:100C7000EF20502D85476314F5008357C400374596
:100C80000040854513050580EF203028F25062545E
:100C9000D2544259B259216182805D71A2C4A6C268
:100CA000CAC02A842E89B28481451306C00248082E
:100CB00086C636C6EFF0CFD42285EF202052B2464A
:100CC000C1473ECE930700083ED44C088D6722856D
:100CD0004ACA26CC36D002D202D602D802DA3EDC8C
:100CE00002DEEF206066B640264496440649616104
:100CF00082805D71A2C4A6C2CAC02A842E89B28431
:100D000081451306C002480886C636C6EFF04FCFAD
:100D10002285EF20A04CB246930700083ED44C0831
:100D2000896722854ACA26CC02CE36D002D202D6A4
:100D300002D802DA3EDC02DEEF200061B640264433
:100D40009644064961618280011122CC37440040FB
:100D500026CA4AC8AE842A8981451305048006CE76
:100D600032C636C4EF20701A13050480835745003D
:100D7000372702001304C480C207C183F59BC20752
:100D8000C1832312F500835745003246A246C207AD
:100D9000C183F99BC207C1832312F500B707024044
:100DA000D8C303A88705416779173378E80023ACD7
:100DB000070523A227070D68A0D31308080923AC51
:100DC0000705E4CF03A84704F240D2443377E80094
:100DD000F8C3B0CB0967E0C71307070AF8C3B4C765
:100DE0000357450062444249136727002312E50078
:100DF000035745008545136717002312E500B84FD8
:100E000013671700B8CFF84313671700F8C30561DD
:100E10006F20B00F37470020B7470020834617E206
:100E200003C307E2B73700200146938747DCB73892
:100E30000040130EF00703C867021378F80F63161B
:100E4000080019CEA300D7E221A803D8870283DEC9
:100E5000A702636AD80719C2A300D7E22383070257
:100E600037E600E03708200023240619232406195A
:100E70002324061985462383D70223940702B73615
:100E8000024023AEA644239EB64C83C5E64D3735BB
:100E9000004093F5C50F238FB64C83C5E64D93F5FF
:100EA000F50F238FB64C23240611834617E2014623
:100EB0001308F00783C5670293F5F50F99ED19C282
:100EC000A300D7E2828083A608C0054693F6F60702
:100ED000E3F366F623A0C8C1B9BF83D5870283D8E0
:100EE000A70263E8150119C2A300D7E22383070212
:100EF0008280832605C0054693F6F607E3FC66FA72
:100F0000232005C145BFB70702409843411122C4C1
:100F100006C63734002093162701130444DC63D738
:100F200006009C431397E700634807008357E402D9
:100F30000357040363E4E70837470040835787807B
:100F40000145C207C183F59BC207C1832314F78003
:100F500083578780C207C183F99BC207C1832314CB
:100F6000F780B70702400967D8C337070200D8C324
:100F7000B44F41677917F98EB4CFF443758FF8C336
:100F80001C5C9107C207C183231DF400EFF0AFD8AA
:100F9000230904028357E402035704033735002072
:100FA00063E7E7009307459C0547A381E7002244D8
:100FB000B24091451305459C4101A9BDB240224470
:100FC00041018280B70702409843411122C406C6FE
:100FD0003734002026C293162701130444DC63D75C
:100FE00006009C431397E700634807008357E40219
:100FF0000357040363ECE7063747004083578780B5
:10100000B73400201385449CC207C183F59BC207F7
:10101000C1832314F78083578780C207C183F99B5C
:10102000C207C1832314F780B70702400967D8C3FA
:1010300037070200D8C3B44F41677917F98EB4CF90
:10104000F443758FF8C30C5C8D05C205C181D9339B
:10105000185C5C58998F5CD85C5891EF91470145BA
:10106000231DF400EFF02FCB23090402B2402244E9
:101070009244410182805C581CDC185C9307A01FDD
:1010800063F5E7009307B01F1CDC930730FC238255
:10109000F49C1C5C9384449C37360020A380F400AD
:1010A0001C5C0C5C145C37150020C205C206A183D1
:1010B000C1821306769CC1811305455C2381F4002F
:1010C0006131231D04005DB75971B737002086D602
:1010D000A2D4A6D2CAD0CECED2CCD6CADAC8DEC668
:1010E000E2C4E6C2EAC06EDE138747DC834627030C
:1010F00005466314D602013D05442285B6502654A8
:1011000096540659F649664AD64A464BB64B264C83
:10111000964C064DF25D6561828083462703094641
:101120006315D60045350944C9BF03574700371A30
:101130000020130A8A594207418311EB83470A00B2
:101140000D4493F7F70FD5FBEFF0CFD57DB7938B19
:1011500047DC03D76B0181444207418315E303D782
:101160002B0006075E970357670042074183239BC6
:10117000EB0003D72B00260742074183239CEB009B
:1011800003D78B01B72C0020938C4C9CB73A0020DE
:10119000BA9C014B02C237390020938A0AE203D776
:1011A0006B014207418319C363080B0083470A00A0
:1011B000014493F7F70F41BF03470A001377F70F76
:1011C00025E383C60C003717002013072759230097
:1011D000D70083D68B011306F00B13841C00850601
:1011E000C206C182239CDB0083D66B01FD16C206BA
:1011F000C182239BDB0083460700637CD600034744
:1012000007009306400D63E6E60005472300EA0069
:1012100019A023000A000545EFF0EFAFA28C41B7FB
:1012200003470A00B71700208546938947596398FA
:10123000E60203C70C0013841C002390E90003D7C7
:101240008B01050742074183239CEB0003D76B0109
:101250007D1742074183239BEB00094745BF0347A6
:101260000A0089466394E60403C70C0083D609008C
:1012700013841C002207558F2390E90003D709002F
:10128000B716002042074183239BE65803D78B0102
:10129000050742074183239CEB0003D76B017D17B1
:1012A00042074183239BEB000D478DB703D4090010
:1012B00003D76B01420441806366E40003D46B01F1
:1012C00042044180B71700201387275903470700BE
:1012D00093872759D146130707041377F70F3EC4A6
:1012E000E3EFE63C95660A07938646F33697184384
:1012F00002876947239DEB0003D7AB01B714002099
:101300006364E40C37350020E68549461305C5E0E3
:10131000EF20700EEFF03F841386445C374D0040A1
:10132000B704024081469305CD8013858405B5320C
:1013300081461306499C9305CD8013854404553A94
:1013400003C72C01E90C2392EB0403C79CFF83D64F
:101350004B0422073697420741832392EB0403C7CD
:10136000ACFF2383EB0403C7BCFFA383EB04930709
:10137000001C2312F99C92471307499C2301070084
:10138000BDEFA3010700014B914403D709003304CB
:101390008740420441802390890003D70900420717
:1013A000418319E323000A00A2479306F00C03C708
:1013B000070063E7E60089C4A6851305499C993CAC
:1013C0000145EFF04F95E1BBEFF0EFF81386445C79
:1013D000374C0040B704024081469305CC8013850A
:1013E0008405EFF09F8B81461306499C9305CC80C2
:1013F00013854404EFF0FF8F85473EC28DBF8546BD
:10140000A301D70051B72947239DEB0003C70C0068
:1014100093168701E18663DB06009376070437178E
:101420000140130707C0D5CA856614CB03C70C005B
:10143000238E0B021377070201C70547238EEB02A9
:1014400003C72C0003C51C0022073A9542054181C1
:1014500019C1EFE07FE503C73C00239FEB0203C700
:101460004C0083D6EB032207369742074183239F24
:10147000EB0203C75C0093168701E18663DA06007E
:101480001377070431CF371701409306000414CBBC
:1014900003C75C0023800B041377070201C70547CD
:1014A0002380EB0403C77C0003C56C0022073A9538
:1014B0004205418119C1EFE03FDF03C78C00A90C51
:1014C0002391EB0403C7FCFF83D62B042207369736
:1014D000420741832391EB044DBD856654CBB9B7D8
:1014E000371701409306000454CB5DB71307B01FB4
:1014F000228D63748700130DB01FB736004003A719
:1015000006C037460020420D1377F707A300E6E236
:1015100037460020034606E2135D0D016376C700DF
:101520001307F00723A0E6C037370020035707E171
:10153000631F0712668C930D499CEA84B7450040EF
:10154000ADEC93043D00C204338CAC01C18003C7F1
:10155000CB031377F70F19CF03D7EB034207418370
:1015600009C703D5EB03EFE03FD437170140856689
:101570002328D7C003C70B041377F70F19CF03D75E
:101580002B044207418309C703D52B04EFE0DFD1C9
:10159000371701409306000414CB130720FC2302E5
:1015A000E99C1307499C239DAB01A300A701135D90
:1015B0008D002301A701E28CC9BB03D78580098B6D
:1015C0006DDF03470C002396E58003D78580058BEC
:1015D0006DDF03D7C580A381ED0003D74B0442071D
:1015E000418319C703D54B04EFE01FCCB74500403A
:1015F000FD14C204C180050C850D99B78356868001
:10160000898AEDDE83461C0083480C00A206B3E6FF
:1016100016012316D68083568680858AEDDE835692
:10162000C68011074207C206C182AE94418323805F
:10163000D4002E97A1822300D70003D74B04420782
:10164000418309CB03D54B042EC6EFE0FFC5B2455D
:1016500037460040890D13970D01418393043700ED
:10166000C204C180338CBC01E31AEDF8CDB5814DC5
:10167000374600409305499CF9BF03C70C00138B04
:101680004C0023AAEB0203C71C0083A64B032207CE
:10169000369723AAEB0203C72C0083A64B0342070D
:1016A000369723AAEB0203C73C0083A64B036207CD
:1016B000369723AAEB0203A74B0323ACEB0283A6C6
:1016C0008B031307A01F6376D7001307B01F23AC4B
:1016D000EB02130730FC2302E99C03A78B0393065C
:1016E000499C37360020A380E60003A78B0383A51F
:1016F0008B033715002021832381E60083A68B030B
:10170000C2051306769CC206C182C1811305455CE1
:10171000EFF08FE309472389EB02239D0B00DA8C5E
:10172000054BA5B123AA8B0203A74B0323ACEB0205
:1017300083A68B031307A01F6376D7001307B01F80
:1017400023ACEB0283A58B0383A68B0337360020E3
:10175000C205C2061307401CC1821306869CC181C4
:1017600066852322E99CEFF02FDE05472389EB02F3
:10177000239D0B0075B703C70C00138D1C0005EFEC
:1017800005473AC891441307A0FC373500202302CF
:10179000E99C26861307499C0C081305759CA30039
:1017A000970023010700EF20004505478D04239D86
:1017B000EB00EA8CD9BE85466311D704B73500200B
:1017C00049469385C5E00808EF20E04203D74B0463
:1017D00023130102231401022301E10203D74B0466
:1017E000E9442183A301E10203C76B042302E10260
:1017F00003C77B04A302E10279B789468144E3145D
:10180000D7F8371700200347975923190100231AE7
:1018100001002308E100371700200347175A9944B5
:10182000A308E1008DB783C60C0037170020138D85
:101830002C00A30CD75803C71C00B71C0020938CA6
:101840001C5A2380EC00712D03C70C0095460145FE
:101850006383E60403C70C0091462145638DE602CD
:1018600003C70C008D4641456387E60203C70C00A1
:10187000894661456381E60203C70C00854613056E
:101880000002638AE60003C70C0021451377F70FB7
:1018900019E313058002EFE05FBB1947239DEB00BE
:1018A000239E0B00239F0B0023900B0203D7CB0139
:1018B0004207418393061700C206C182239EDB00C4
:1018C0005697930600FD2300D70003D7CB014207AC
:1018D000418393061700C206C182239EDB00569700
:1018E00085462300D70003D7CB01420741839306E7
:1018F0001700C206C182239EDB0056972300070013
:1019000003D7CB014207418393061700C2065697BF
:10191000C182239EDB002300070011472390EB02C6
:1019200049BD338D8C00931D0D01239D8B0093DDEC
:101930000D0113970C014183E30DB7E7850C03C537
:10194000FCFF3125FDB737170020239D8B001307BF
:1019500067590356070083D60900C206C182639BFC
:10196000C6002310070083D509001305200D8581CB
:10197000EFE0DFC7668DA29C139C0C01135C0C0189
:10198000856D81A8050D8346FDFF368536C6C123CA
:10199000B246858A9DCE83D6CB01C206C18236C6A9
:1019A0003125B246D6962380A60083D6CB01850684
:1019B000C206C182239EDB0083D6CB0163E4B6015D
:1019C000239E0B0083D60B028506C206C18223909C
:1019D000DB0293160D01C182E39686FB7DB205659D
:1019E000814513050580EF101047239D8B00EFE024
:1019F000BFAC9306B01F66876308D402338D8C009A
:101A000093150D01C1813746004093160701C1822D
:101A1000638CB63C05070345F7FF2316A680835663
:101A20008680898AEDDED5B793854C1FB746004086
:101A3000034507002396A68003D68680098A6DDEBB
:101A4000034617002396C68003D68680098A6DDE7A
:101A5000034627002396C68003D68680098A6DDE5A
:101A6000034637002396C68003D68680098A6DDE3A
:101A7000034647002396C68003D68680098A6DDE1A
:101A8000034657002396C68003D68680098A6DDEFA
:101A9000034667002396C68003D68680098A6DDEDA
:101AA000034677002396C68003D68680098A6DDEBA
:101AB000034687002396C68003D68680098A6DDE9A
:101AC000034697002396C68003D68680098A6DDE7A
:101AD0000346A7002396C68003D68680098A6DDE5A
:101AE0000346B7002396C68003D68680098A6DDE3A
:101AF0000346C7002396C68003D68680098A6DDE1A
:101B00000346D7002396C68003D68680098A6DDEF9
:101B10000346E7002396C68003D68680098A6DDED9
:101B20000346F7002396C68003D68680098A6DDEB9
:101B3000034607012396C68003D68680098A6DDE98
:101B4000034617012396C68003D68680098A6DDE78
:101B5000034627012396C68003D68680098A6DDE58
:101B6000034637012396C68003D68680098A6DDE38
:101B7000034647012396C68003D68680098A6DDE18
:101B8000034657012396C68003D68680098A6DDEF8
:101B9000034667012396C68003D68680098A6DDED8
:101BA000034677012396C68003D68680098A6DDEB8
:101BB000034687012396C68003D68680098A6DDE98
:101BC000034697012396C68003D68680098A6DDE78
:101BD0000346A7012396C68003D68680098A6DDE58
:101BE0000346B7012396C68003D68680098A6DDE38
:101BF0000346C7012396C68003D68680098A6DDE18
:101C00000346D7012396C68003D68680098A6DDEF7
:101C10000346E7012396C68003D68680098A6DDED7
:101C20000346F7012396C68003D68680098A6DDEB7
:101C3000034607022396C68003D68680098A6DDE96
:101C4000034617022396C68003D68680098A6DDE76
:101C5000034627022396C68003D68680098A6DDE56
:101C6000034637022396C68003D68680098A6DDE36
:101C7000034647022396C68003D68680098A6DDE16
:101C8000034657022396C68003D68680098A6DDEF6
:101C9000034667022396C68003D68680098A6DDED6
:101CA000034677022396C68003D68680098A6DDEB6
:101CB000034687022396C68003D68680098A6DDE96
:101CC000034697022396C68003D68680098A6DDE76
:101CD0000346A7022396C68003D68680098A6DDE56
:101CE0000346B7022396C68003D68680098A6DDE36
:101CF0000346C7022396C68003D68680098A6DDE16
:101D00000346D7022396C68003D68680098A6DDEF5
:101D10000346E7022396C68003D68680098A6DDED5
:101D20000346F7022396C68003D68680098A6DDEB5
:101D3000034607032396C68003D68680098A6DDE94
:101D4000130727030346F7FF2396C68003D6868032
:101D5000098A6DDEE31EB7CC03C74C1F374600402F
:101D60002396E68003578680098B6DDF03C75C1FCF
:101D70002316E6803746004003578680098B6DDFC7
:101D800003C76C1F2316E680374600400357868042
:101D9000098B6DDF03C77C1F2316E68037460040A2
:101DA00003578680098B6DDF03C78C1F2316E680DF
:101DB0003746004003578680098B6DDF03C79C1FA1
:101DC0002316E6803746004003578680098B6DDF77
:101DD00003C7AC1F138DBC1FB74600402316E68017
:101DE00003D78680098B6DDFB746004003D7868016
:101DF0001377070865FFEFE0AFEEB736004003A7A3
:101E000006C0374600201377F707A300E6E23746FF
:101E10000020034606E26376C7001307F00723A0FD
:101E2000E6C00565854513050580EF10D00251B267
:101E300037170020239D8B001307675903560700AF
:101E400083D60900C206C182639AC6002310070028
:101E500083D509001305400DEFE04FF9B38D8C00D9
:101E600093960D01C182A1A0850C03C5FCFF36C667
:101E700003DDCB01052403D7CB01420D135D0D011A
:101E8000050742074183239EEB0003D7CB01569DF4
:101E90002300AD000566B2466364C700239E0B00B5
:101EA00003D70B020507420741832390EB021397E8
:101EB0000C014183E31AD7FAEE8C6FF00FCD03D4F7
:101EC000090003D76B0137550000420442074183E4
:101ED000130585F84180239DEB00EF10D06E6FF065
:101EE000CFCA01118545214506CE22CC26CA4AC853
:101EF00002C23719014002C402C6EF10E073ED7749
:101F00008D4441444C00130509C02312F10026C43E
:101F100022C6EF10E04691672312F1004C009307B0
:101F20008004130509C03EC6EF10804593070004E6
:101F30004C003715014026C422C62312F100EF10D1
:101F40002044F2406244D244424905618280B7177E
:101F5000014013770501938707C015CF216798CB00
:101F6000B717014013772500938707C005CB056796
:101F700098CBB717014013771500938707C015C397
:101F8000096798CB13750502B717014013070004C2
:101F900001CD98CB82802167D8CBD9B70567D8CB44
:101FA000C9BF0967D8CBF9BFD8CB8280B71701402A
:101FB00003A587C0398105898280B717014013774F
:101FC0001500938707C045C3216798CBB717014019
:101FD0000967938707C098CBD8CB1377250059C7DB
:101FE000216798CB096798CBD8CB1377450051C3AD
:101FF000216798CBB71701400967938707C098CB33
:10200000D8CB137785002DCB216798CB096798CB68
:10201000D8CB1377050125C7216798CBB7170140A7
:102020000967938707C098CBD8CB1377050239CBC4
:10203000216798CB096798CBD8CB1377050431C7B4
:10204000216798CBB71701400967938707C098CBE2
:102050006205D8CB61852167635C050298CB09676F
:1020600098CBD8CB82802167D8CB8DB72167D8CBCE
:1020700095BF2167D8CBBDBF2167D8CB41BF2167B2
:10208000D8CB69BF2167D8CB75B72167D8CB5DBFE7
:10209000D8CBF1B7B717014013771500938707C066
:1020A00063030710216798CBB7170140938707C0D8
:1020B000944713571500096613D576001375050864
:1020C00090CB598DD0CB137715006DC3216798CB7A
:1020D0009847896605811D831377070894CB498F3C
:1020E000D4CB93761700F1C6A16694CBB717014005
:1020F000938707C08847896605831D811375050886
:1021000094CB598DD4CB137715005DC7216798CB3D
:102110009847896605811D831377070894CB498FFB
:10212000D4CB93761700C1CEA16694CBB7170140EC
:10213000938707C08847896605831D811375050845
:1021400094CB598DD4CB137715002DCF216798CB25
:102150009847896605811D831377070894CB498FBB
:10216000D4CB93761700B5C2A16694CBB7170140C4
:10217000938707C08847896605831D811375050805
:1021800094CB598DD4CB1377150039C3216798CBE5
:102190009847896694CBD4CB9357770093F7070879
:1021A00005815D8D82802167D8CBFDBD2167D8CBAD
:1021B00005B7A166D4CB1DBF2167D8CB91BFA1665F
:1021C000D4CBADB72167D8CB61B7A166D4CB79BFEB
:1021D0002167D8CB75BF37550000130545FAEF10BE
:1021E000903E7300203037550000130505F9EF10BD
:1021F000903D01A03717002083570759A546850752
:10220000C207C1832318F758B71700209387875A4E
:1022100003D707000507420741832390E70003D750
:10222000070063FBE6002390070037170020832791
:10223000475A85072322F75AB7370020938747DC90
:1022400003D727020507420741832391E70203D7FB
:1022500087020507420741832394E702B70700403E
:1022600079572398E70073002030B717004079575B
:102270002398E7809387078073002030397106DE4A
:1022800022DC26DA4AD84ED652D4EF10B0033715E6
:102290000E00EF107009EFE0AF85EFE06F88680087
:1022A000EF10C026375500008145130505FBEF10E0
:1022B000F01F37550000130545FCEF10D030EFE05C
:1022C0008F8937550000130545FFEF10D02FEFE041
:1022D000EF912145EFE06F97371400208345945923
:1022E0003755000013050500EF10501CB7170020EC
:1022F00083C5175A3755000013050501EF10101B51
:102300003755000013050502EF10F02BEFE06FFFCB
:1023100037490040B7040240371600209305C980B2
:102320001385840581461306465CEFE01F97373618
:1023300000209305C98081461306469C13854404FA
:10234000EFE03F9B375500001305C502EF10B027A3
:102350000545912EB7E700E037072000375500000C
:1023600023A4E71013058503EF10F02513060018CA
:102370009305F0051305F007EFE0EF82B737004053
:1023800003A747C0B7470020BE841377F707238011
:10239000E7E237390040374A00209309F0078347C6
:1023A000945993F7F70F85E3EFE01FD2832709C015
:1023B00003C704E293F7F707A300FAE2E3F1E7FEAD
:1023C000232039C1E9BFEFE00FBDCDB7B7170240F9
:1023D0009843B706FFF841111367170098C3D84315
:1023E00037060200758FD8C39843B706F7FEFD166F
:1023F000758F98C39843B706FCFFFD16758F98C379
:10240000D843B70681FFFD16758FD8C337079F00E5
:1024100098C702C402C69843C166558F98C3B716C1
:10242000024005679C42F18F3EC6A24785073EC425
:10243000B24781E7A247E397E7FEB71702409C4304
:102440001397E7006351070885473EC63247854723
:102450006319F706B7170240D843B706C1FFFD1648
:10246000D8C3D843D8C3D843D8C3D843758FD8C3AB
:1024700037F7FF1F0327C77093161701D84363C6AA
:102480000604B7063D00558FD8C3371702401C43DA
:10249000B7060001D58F1CC3B717024098439316A7
:1024A0006700E3DD06FED843B7160240719BD8C330
:1024B000D84313672700D8C32147DC42B18BE39E82
:1024C000E7FE4101828002C651B7C1666DBF41116E
:1024D00006C6B717024037070011D8D7D857B70636
:1024E00000C01305800C558FD8D7D84B85669386CE
:1024F0000680558FD8CBEF100060B737024003C776
:102500001740154513670701A380E740B24041011A
:102510006F10605EB73702403707FF0193870740AF
:102520001307F71F98CB23AA070023AC0700130754
:102530000004239CE70813070020239EE70823904C
:10254000E70A2392E70A2394E70A2396E70A2398E7
:10255000E70A239AE70A239CE70A239EE70A2390C7
:10256000E70C2392E70C2394E70C2396E70C2398BF
:10257000E70C239AE70C93860182D4CF13860604D6
:10258000F0CF1386060890D31386060CB0D33726F7
:1025900000201306469CD0D31386062CF0D390D788
:1025A0001386064CB0D79386066CD4D7B716002096
:1025B0009386060D1386068CB0DB138606ACD0DB43
:1025C000138606CCB0DF938606ECD4DF8545A38264
:1025D000B180239C070C8946238DD70CA38D070C53
:1025E000239E070C238FD70CA38F070C2390070E75
:1025F0002381D70EA381070E2392070E2383D70EC4
:10260000A383070E2394070E2385D70EA385070EF9
:102610002396070E2387D70EA387070E2398070E4E
:102620002389D70EA389070E239A070E238BD70E73
:10263000A38B070E239C070E238DD70EA38D070EA9
:1026400013062002239E070E93060002238FC70E57
:10265000A38FD70E239007102381C710A381D71013
:10266000239207102383C710A383D7102394071046
:102670002385C710A385D710239607102387C7107B
:10268000A387D710239807102389C710A389D710D1
:10269000239A0710238BC710A38BD710A383B18075
:1026A0002394E1808280411106C622C426C23734B9
:1026B0000240AA84293D4147A3000440A300E4400E
:1026C00023000440130790022300E4402301044048
:1026D000130770022301E4407D572328E4401D3D89
:1026E0002945EF1040418547639DF400834704402E
:1026F00093E707012300F440B24022449244410191
:1027000082808347044093F7F70E2300F440834709
:10271000044093E76700F9BF011122CE373402402D
:1027200026CC4ACA4EC852C656C45AC213040440E4
:102730008347A40093F7F70F13F7270063020726D8
:102740000347B4008347B40089463D8B91838D8B4A
:10275000631ED70C639FE7028347240E93C787004D
:102760002301F40E8347240E93E727002301F40E80
:10277000B737024009472385E740938707407244F3
:10278000E2445249C249324AA24A124B05617300DF
:102790002030F9FF8347340E9D4593C78700A3017E
:1027A000F40EB737002003D647DC8356C4001387E6
:1027B00047DC0606C2063297C1822313D70003D72F
:1027C00047DCB72600209386469C050742074183D5
:1027D0002392E7DC03D747DC2607369758D003D689
:1027E00047DC138747DC63F5C500239207DC54D030
:1027F0008357470095468507C207C1832312F70018
:1028000083574700E3F6F6F6B737024083C6374EE4
:1028100093F6C60FA381D74E83C6374E93E62600A4
:10282000A381D74E85472306F70299B70546631E55
:10283000C7086397D7068347E40D93C78700230F24
:10284000F40C8347E40D93E72700230FF40CB7370C
:102850000020138747DC03476702938747DC137721
:10286000F70F19D72383070283D6470203D7E7015F
:10287000369742074183239FE70003D7E701856628
:102880006364D700239F070083D6470203D707025C
:10289000158F420741832390E70223920702C9BDA7
:1028A000E39807EC8347F40D93C78700A30FF40C5C
:1028B0008347F40D93F7C70FA30FF40C8347F40D70
:1028C00093F7F70FA30FF40C65B5E31307EA6391D1
:1028D000D70C83C76180154793F7F70F6381E7082B
:1028E0001947B7490020639FE708B7140020938772
:1028F000E45A83D707001307F0039384E45A1304C0
:1029000000046366F70003D404004204418003A975
:1029100049E62286CA8513850182EF10C02D83D730
:102920000400229923A229E7818FC207C183239043
:10293000F4009387518003C70700134717002380D3
:10294000E70037370240231C874C83C7070093F703
:10295000F70F93B717008E07230DF74C11BDB7176C
:10296000002083C7A75AA301040093F7F70FA30120
:10297000F400A382C180231C040C230D040CA30DBE
:10298000040CFDB3A147A30DF40C23A209E6CDB3BB
:10299000E39007DE231C040CA147230DF40CC9BBF4
:1029A00013F7070263070764A947230DF40C834755
:1029B000B40D0D476315F700A147A30DF40C9386E2
:1029C000018203D76600371400209307E45A23904E
:1029D000E70003C71600938761802380E70083D751
:1029E000260083C406003716002013D7870013750E
:1029F000F70F2308A65A93F6040693856180130403
:102A0000E45A1389518013860182D1C2835704008E
:102A1000C207C18399C3231004008357040013071E
:102A2000F003130A00046367F700035A0400420A24
:102A3000135A0A01374B0020832A4BE6528613852E
:102A40000182D685569AEF10001B23224BE7E20441
:102A5000E184814763D30402035704009307000411
:102A600063E6E70083570400C207C18303570400ED
:102A70001D8F420741832310E400230009003737EC
:102A80000240231CF74CA147230DF74CC5A083C679
:102A900005002D4593F6F60F636BD50A15658A067A
:102AA00013050504AA96944282867D174207418346
:102AB000994663EEE60895660A07938606073697F9
:102AC0001843028795679387C70C37470020232256
:102AD000F7E6C94703570400E3F1E7F42310F400D5
:102AE0002DBFB737024083C687408D8A054693873E
:102AF0007180138781806397C6022380D700930675
:102B000000202310D70083C70700854637470020E1
:102B1000639FF60095679387C70A2322F7E693071A
:102B200000024DBF2380070093060004D9BF9567BC
:102B30009387C708DDB793F7F70F05476385E70469
:102B40009DCB0947638AE7040D476381E706FD577C
:102B50002380F50085472300F900B7370240239C06
:102B6000074C0D47238DE74CA38DE74CB737024048
:102B70001307000209B19387818137470020232280
:102B8000F7E6914781BF95679387070E3747002087
:102B90002322F7E6B9473DBF95679387070F37476D
:102BA00000202322F7E69307C0022DB7956793878D
:102BB000C711374700202322F7E6D94721BF956781
:102BC00093874713374700202322F7E6A94719B711
:102BD0009387718003C7070085466393E602370A2F
:102BE00000209565130A0A0279469385E5081305C6
:102BF0002A00EF104000B747002023A247E705B79F
:102C000083C7070093F7F70FB9F3370A00209565DC
:102C1000130A0A0079469385E50AD1BF93F7F70FA7
:102C2000371700202305F75A1DB5B717002083C7B3
:102C3000B75A2300F600035704008547E3F9E7E09D
:102C40002310F40029B593F7F70F37170020A305D9
:102C5000F75AB717002005472386E75ACDBB93F6EE
:102C6000F4010947639CE60E034746002146B73747
:102C700002406305C708938707406369E60211466F
:102C8000630BC70A636CE6006307D70C63EDE60AC3
:102C90008546E31ED7EAA38F070C55BB9946630C04
:102CA000D70663F2E608A38B070E55B31306400858
:102CB000630EC7066361E602130620086308C708AF
:102CC000636EE60613061008E313C7E8239E070C9D
:102CD000238FD70CADBB130660086309C702636F6F
:102CE000C70213067008630EC70013068008E310BE
:102CF000C7E6239C070E238DD70E91BBA38D074EED
:102D0000B9B3239A070E238BD70E91B32398070EDE
:102D10002389D70E2DBBA389070E15BB2396070E5B
:102D20002387D70E2DB3A387070E15B32394070E61
:102D30002385D70E29BBA385070E11BB2392070E4F
:102D40002383D70E29B3A383070E11B32390070E55
:102D50002381D70EEDB9A381070ED5B9E39906DE1D
:102D600093F7F70F0547E394E7CEB7170020938753
:102D7000175B03C707001377E70F2380E700C1B98C
:102D800093F6F4010947E394E6DCE39207DC03479A
:102D900046002146B73702406303C70A93870740BE
:102DA0006361E6041146630DC70E6360E6026305C6
:102DB000D71263E5E6108546E31BD7D803C7F70DA6
:102DC00013673700A38FE70C59B19946630ED708F4
:102DD00063FAE60A03C7770F13673700A38BE70E82
:102DE000BDB1930640086306D70A63E3E602930683
:102DF0002008630CD70C63ECE60A93061008E3186E
:102E0000D7D403C7E70D13673700238FE70C81B1D1
:102E1000930660086303D704636FD70493067008B2
:102E20006306D70293078008E313F7D2B73702404F
:102E300003C7A74F13673700238DE74E09B903C7B0
:102E4000B74F13673700A38DE74E11B103C7670F64
:102E500013673700238BE70EDDBE03C7270F136709
:102E600037002389E70EE5B603C7370F136737002E
:102E7000A389E70EE9BE03C7E70E13673700238770
:102E8000E70EF1B603C7F70E13673700A387E70E07
:102E90007DBE03C7A70E136737002385E70E45BE27
:102EA00003C7B70E13673700A385E70E4DB603C7F8
:102EB000670E136737002383E70E51BE03C7770EF3
:102EC00013673700A383E70E59B603C7270E1367AE
:102ED00037002381E70EA5BE03C7370E13673700FF
:102EE000A381E70EADB623000600B1B383574600B9
:102EF00037370240231006009306100813070740D7
:102F0000639FD7008347E70D8D8B0D476395E700DF
:102F100085472300F60003570400894705B385461B
:102F20006395D7008347F70DC5B7930620086395CF
:102F3000D7008347270EC9BF89466395D7008347CB
:102F4000370ED9B7930630086395D7008347670ECD
:102F500065BF8D466396D7000347770E0D8B7DB70F
:102F6000930540086398B7008347A70E8D8BE394C1
:102F7000D7FA79BF91456395B7008347B70EFDB780
:102F800013055008BA856395A7008347E70EF9BF7C
:102F900015476395E70083C7F50EBDB73737024085
:102FA00093066008130707406395D7008347270FF0
:102FB000A1BF99466395D7008347370FB1B79306F2
:102FC00070086395D7008347670F3DBF9D466395A3
:102FD000D7008347770F0DBF930680086395D7000E
:102FE0008347A70F15B7A146E397D7F28347B70FDB
:102FF00021BF13F7170005CF37550000130505143F
:10300000EF00705CB71700209387A75A2380070052
:1030100083C70700A301040093F7F70FA301F4008F
:10302000EFF04FCF85472305F4006FF04FF5918BFC
:10303000A9CB91472305F40083479400371400205F
:103040001304145B918B81CF8347040093E727001F
:103050002300F400B737024011476FF0CFF1375526
:1030600000001305C514EF00105683470400054700
:1030700093F7D70F2300F400B71700202386E75AF1
:10308000D1BF8347A40093F7F70F71BF01A001A040
:1030900001A001A001A001A001A001A001A001A028
:1030A00001A001A001A001A001A001A001A001A018
:1030B00001A001A001A001A001A001A001A001A008
:1030C00001A001A001A001A001A001A001A001A0F8
:1030D00001A001A001A001A001A001A001A001A0E8
:1030E00001A001A001A001A001A001A001A001A0D8
:1030F00001A001A001A001A001A001A001A001A0C8
:1031000001A001A001A001A001A001A001A001A0B7
:1031100001A001A001A001A001A001A001A001A0A7
:1031200001A001A001A001A001A001A001A001A097
:1031300001A001A001A001A001A001A001A001A087
:1031400001A001A001A001A001A097D1FF1F9381C0
:103150006176175100201301E1EA172500001305DD
:10316000E50997D5FF1F9385E5E91386018263FA88
:10317000C5008322050023A0550011059105E3EA4F
:10318000C5FE17E5FF1F1305E54097150020938541
:1031900025CE6377B500232005001105E36DB5FE4C
:1031A000FD42739002BCFD4273904280B762000002
:1031B0009382820873A0023097D2FFFF938202E8C5
:1031C00093E2320073905230EFF04FA097F2FFFF7E
:1031D0009382020B73901234730020301C414167BC
:1031E0007917F98F1CC12320050023220500232411
:1031F0000500B707024023260500138787006317E1
:10320000E500D8431367F700D8C382801387C7014E
:103210006316E500D8431367070FFDB7138707034D
:103220006318E500D8438566938606F0558FE9BF9D
:10323000138747046315E500D843BD66C5BF1387F0
:1032400087056316E500D843B7060F00C5B7138797
:10325000C7066316E500D843B706F000C1BF138761
:1032600007086316E500D843B706000FC1B71387F8
:1032700087406319E50003A747401367F70023A2BF
:10328000E74082801387C7416317E50003A74740E3
:103290001367070FEDB793870743631BF500B70765
:1032A000024003A747408566938606F0558FC1BF4D
:1032B000B7070240138747446316E50003A747405A
:1032C000BD66EDB7138787456317E50003A7474041
:1032D000B7060F00E1BF1387C7466317E50003A7D2
:1032E0004740B706F000D9B7138707486317E500D2
:1032F00003A74740B706000F55BF13870749631957
:10330000E50003A7474D1367F70023AAE74C828027
:103310001387074A6317E50003A7474D1367070F95
:10332000EDB71387074B6319E50003A7474D856683
:10333000938606F0558FD1BF1387074CE319E5FC40
:1033400003A7474DBD66FDB71C4161773D0794510A
:103350007D8F9C45D58F9449D58FD449D58F944D79
:10336000D58FD44DD58FD451D58F9455D58FD98F36
:103370001CC1DC455CC19C411CC5DC415CC5828034
:103380009C4513F7070113F8F70001C7D8413368CC
:10339000E80083D5050013F7F50F39C318418146BE
:1033A000854E3D4F930F800293028004214E339649
:1033B000DE00B3F8C500631116039398260033139B
:1033C0001F011343F3FF3377E300B318180133E70A
:1033D000E800639FF70550C98506E39AC6FD18C14A
:1033E0001307F00F6375B70454412146854E3D4FD6
:1033F000930F800293028004414EB398CE0033F7BE
:1034000015016392E8021317260001173313EF002A
:103410001343F3FFB376D3003317E800D98E639DCF
:10342000F701232A15010506E319C6FD54C1828060
:10343000E39457FA10C94DB7E39757FE23281501B7
:10344000DDB70CC98280B717002023AAA75A828053
:10345000B71700209387475B94430347050089E62D
:1034600083472500920731A8944305466391C6041B
:10347000834725000346150092076314D60093E79F
:1034800007F8B7E600E093F7F70FBA962380F64007
:103490008546935757003397E6005441ADC693874E
:1034A00007048A07B7E600E0B69798C382808C438A
:1034B00089466393D50283461500834725006365DB
:1034C000D6008A06B69779BF9386E6038A06B69732
:1034D00093F7F70F920765B790438D46631ED600AA
:1034E00083461500834725006364D6008606D9BF4E
:1034F0009386C6078606E1BF94439147E39AF6F8A0
:103500008347150085B79387070661BF37170240C9
:103510005C439146B18B6385D700A1466386D7068D
:10352000B7177A00938707201CC1371602405C4208
:1035300037070020130707049183BD8BBA9783C612
:1035400007001C41B3D7D7005CC15442A1829D8AB9
:10355000BA9683C60600B3D6D70014C55442AD82CE
:103560009D8A369703470700B3D7E7005CC55842EA
:103570003983937637001387C18036970347070056
:10358000B3D7E7021CC982805C4354434167C983B7
:10359000F98E37F7FF1F0327C770BD8B89071316F6
:1035A000170163480600454601476392C702C947B1
:1035B00039A809476389E7023D476388E702414725
:1035C0006388E702454601476393C700C14785E624
:1035D000B746024083A60680C18A8DC6B7167A0018
:1035E0009386062025A00147D9B70547B547C5B73B
:1035F0000147BD47E9BFB7160240D4421396E60023
:10360000E35E06FCB7163D0093860690B387D702AB
:103610001CC101DF1C41858301BF99C537170240DA
:103620005C4B5D8D48CB8280B7170240D84B134569
:10363000F5FF798DC8CB828099C5371702401C4FA2
:103640005D8D08CF8280B7170240984F1345F5FF74
:10365000798D88CF828099C5371702405C4F5D8D88
:1036600048CF8280B7170240D84F1345F5FF798DB8
:10367000C8CF828099C5371702405C475D8D48C727
:103680008280B7170240D8471345F5FF798DC8C728
:10369000828099C5371702401C4B5D8D08CB828014
:1036A000B7170240984B1345F5FF798D88CB828080
:1036B000035705008D679387070483D625007D8F08
:1036C00083D70500D58F83D64500D58F83D6650077
:1036D000D58F83D68500D58F83D6A500D58F83D689
:1036E000C500D58F83D6E500D58FD98F2310F5007F
:1036F0000357C501FD779387F77FF98F231EF500E8
:1037000083D705012318F50082808357050091C5F2
:1037100093E707042310F5008280C207C18393F763
:10372000F7FBC207C183FDB78357450091C593E7F7
:1037300047002312F5008280C207C183ED9BC207B8
:10374000C183C5BF035585006D8D3335A0008280D0
:103750004111B737014006C622C4138707C0631E54
:10376000E500056485451305048029378145130567
:1037700004802244B2404101F5BD9387074063189D
:10378000F50085450965FD3581450965DDB7B75704
:103790000140138707C0631AE50085453705080017
:1037A000D13D814537050800E9B7631AF500854525
:1037B00037051000C1358145370510005DBFB707DB
:1037C0000040631BF50085450545E135814505450C
:1037D0002244B240410175BD938707406318F5004C
:1037E000854509457D3581450945DDB7B717004059
:1037F000138707806318E50085451145593D8145CC
:103800001145F9B7138707C06318E50085452145C1
:103810004935814521456DBF6318F5008545414512
:103820008D3D814541456DB793870740631AF5008B
:10383000854513050002B13D81451305000249BFCE
:10384000B24022444101828083570500373701404E
:10385000930607C0C207C1836300D504B7060040C2
:10386000630CD502938606406308D502B716004064
:10387000138606806302C502938606C0630ED500D8
:1038800013070740630AE50037570140930607C056
:103890006304D5006317E50003D7250093F7F7F815
:1038A000D98F37170040630DE50013070740630900
:1038B000E50093F7F7CF03D76500C207C183D98F1F
:1038C0002310F50083D745002316F50283D70500A2
:1038D0002314F502B7370140138707C0630EE500D4
:1038E00093870740630AF500B7570140138707C065
:1038F0006304E5006316F50083C785002318F5020D
:103900008547231AF50082808357050091C593E708
:1039100017002310F5008280C207C183F99BC207FC
:10392000C183C5BF8357C50009C6DD8D2316B50009
:10393000828093C5F5FFFD8DD5BF93C5F5FFC20508
:10394000C1812318B500828083560501F577FD17E4
:10395000F58F83D66500397122DC06DED58F03D75B
:10396000C5002318F5008356C500FD779387379F60
:10397000F58F83D645002A842EC6D58F83D6850041
:10398000D58F83D6A500D58F2316F5008357450123
:10399000C207C18393F7F7CFD98F231AF5006808C0
:1039A000B536B747014093870780B245631EF404DC
:1039B000A2578356C4006547B387E702C206C18693
:1039C000984163D5060406070356C4004206B3D7E0
:1039D000E702130740064186B3D6E702B3F7E702D2
:1039E0009206635706028E0793872703B3D7E70231
:1039F00013F77700B367D700C207C1832314F4001D
:103A0000F250625421618280925765B70A076DBFF8
:103A1000920793872703B3D7E702BD8BD58FE9BF02
:103A200081C98357C5000967D98F2316F5008280A5
:103A30000357C500F977FD17F98FC5BF93F5F51F3B
:103A40002312B5008280035505006D8D3335A0002B
:103A5000828037370040832747C093F7F7E75D8DB3
:103A60002322A7C08280411102C6B737004003A7B6
:103A700047C01375F507137707F83AC63247598DD3
:103A80002AC6324723A2E7C041018280B7370040EF
:103A900003A747C01367072023A2E7C082801375DE
:103AA000F507B737004023A0A7C08280136505083B
:103AB000B737004023A0A7C08280B737004023A4B7
:103AC00007C08280B707002083A7070B37177A004B
:103AD00013070720B3D7E7023717002093F7F70F34
:103AE000230DF75A1307803EB387E70237170020EC
:103AF000231CF75A8280B7F700E0D8438146799BB0
:103B0000D8C3371700200347A75B3306A70290CB23
:103B1000D4CB98431367170398C3D843058B75DF3D
:103B20009843799B98C38280797122D42A84116545
:103B30008545110506D60936930700202312F100AA
:103B4000371501408D473EC44C00E1471305058001
:103B50003EC6EFF0FF8222C837440140B707080095
:103B60000C08130504803ECC02CA231E0100E93B69
:103B70001305048085456D35B2502254456182801D
:103B8000011126CAB744014022CC4AC84EC606CE0F
:103B9000AE893289014493840480634A2401F2404F
:103BA00062444A85D2444249B24905618280930504
:103BB00000042685493D65DDB387890083850700BC
:103BC00026850504C205C181953DC1BF13870181CA
:103BD0001C43B74600209386C6E63E95636BD5002E
:103BE000B78600209386068063E5A60008C33E855D
:103BF0008280FD57EDBFB3C7A5008D8B3307C5008D
:103C000081E78D4763EEC700AA876370E50A83C624
:103C1000050085078505A38FD7FEE3EAE7FE8280CE
:103C200093763500AA8791CA83C605008507850566
:103C3000A38FD7FE93F63700FDB79376C7FF1386A1
:103C400006FE63F0C70683A3050083A2450083AF89
:103C5000850003AFC50083AE050103AE450103A394
:103C6000850183A8C5019385450223A0770003A899
:103C7000C5FF23A2570023A4F70123A6E70123A829
:103C8000D70123AAC70123AC670023AE170193878E
:103C9000470223AE07FF75B790419107910523AE08
:103CA000C7FEE3EBD7FEE3E4E7F6828039713EDA44
:103CB0002ED232D436D63AD842DC46DE93874181C2
:103CC00022CC804326CA06CEAA8409C41C4C99E3A0
:103CD000228515230C4454102686228536C6EF0013
:103CE000F017F2406244D24421618280011126CA59
:103CF0004AC806CE22CC4EC652C4AA842E8901C51B
:103D00001C4D91E3CD299C4C804499E32685E52107
:103D1000971700009387C746631CF402C04083577F
:103D2000C400A18BB1C71C48A1C7FD59294A1C4436
:103D300083450900FD17B1E91CC463DE070622862E
:103D4000A94526857120FD576308F502294535A050
:103D5000971700009387C7446314F4008044C1B7E9
:103D6000971700009387C73FE31BF4FAC04445BF91
:103D7000A2852685312A55D97D55F2406244D24428
:103D80004249B249224A056182801CC4050963D7B1
:103D90000700184C63CBE700638945011C4013877B
:103DA000170018C02380B70059B7228626850D203A
:103DB000E31F35F7D1B71C401387170018C02947F8
:103DC0002380E70061B793874181AA85884339BF83
:103DD000011122CC26CA4AC806CE4EC6AA842E8914
:103DE000328401C51C4D91E3392197170000938758
:103DF00027396319F406C0401C4C1CC48357C40007
:103E0000A18BC9C31C48BDCF1C4808409379F90F4A
:103E10001379F90F1D8D5C486346F500A285268550
:103E2000652C2DE51C440505FD171CC41C4013879B
:103E3000170018C0238037015C486389A7008357A7
:103E4000C400858B81CBA9476316F900A28526851E
:103E500061240DEDF24062444A85D2444249B249A0
:103E60000561828097170000938787336314F400FD
:103E7000804459B7971700009387872EE31EF4F606
:103E8000C0449DBFA285268521203DDD7D59D9B73F
:103E900041119387418126C2844322C44AC006C689
:103EA0002A892E8489C49C4C99E32685A9269717D4
:103EB00000009387E72C631CF402C0400317C40082
:103EC00093170701C18393F68700B5EE93F60701B8
:103ED0009DEEA5472320F900136707042316E4008D
:103EE0007D55B24022449244024941018280971795
:103EF00000009387E72A6314F4008044C1B7971742
:103F000000009387E725E31BF4FAC04445BF918B7B
:103F10008DC74C5889C9930744046384F5004A85CA
:103F2000352B232A04028357C4002322040093F76D
:103F3000B7FD2316F4001C481CC08357C40093E748
:103F400087002316F4001C4881EF8357C400130731
:103F5000002093F707286385E700A2854A8585211D
:103F60008357C40013F7170005C75C4823240400D7
:103F7000B307F0401CCC1C480145A5F78317C400CB
:103F800013F7070839DF93E707042316F40089BF06
:103F9000898B014791E3584818C4F1BF83D7C50006
:103FA000011122CC26CA06CE4AC84EC613F7870096
:103FB000AA842E8471EFD841634DE000B841634A72
:103FC000E0000145F2406244D2444249B2490561F1
:103FD000828058547DD703A904009396370123A00B
:103FE000040063DD060670488357C400918B99C7AF
:103FF0005C401D8E5C5899C33C401D8E5C540C5037
:10400000814626858297FD570357C400631DF5003E
:104010009440F54763E8D706B70740208507B3D734
:10402000D700858BA5C31C48232204001CC093170E
:10403000370163D80700FD576314F5009C4091E3F6
:1040400068C84C5823A02401ADDD93074404638461
:10405000F50026852121232A0402A5B70C5001462C
:10406000854626850297FD572A86E31FF5F69C4074
:10407000A5DF75476385E70059476394E70423A0EC
:10408000240181B7136707042316E4007D551DBF83
:1040900083A90501E38709F203A905008D8B23A0FD
:1040A000350133093941014791E3D84918C4E35A2E
:1040B00020F11C540C50CA864E862685829763498F
:1040C000A0008357C40093E707042316F4007DBFC4
:1040D000AA993309A940E1BF9C49B9CF011122CC6B
:1040E00006CE2A8411C51C4D81E72EC62922B24571
:1040F000971700009387C708639BF5004C40839790
:10410000C50095C722856244F240056141BD9717FD
:1041100000009387E7086394F5000C44CDB7971728
:1041200000009387E703E39CF5FC4C44C9BFF240D1
:10413000624401450561828001458280411122C4AB
:1041400006C62A842316B5002317C50023200500C0
:104150002322050023240500232205062328050029
:10416000232A0500232C0500214681451305C5059A
:10417000EFC00F8997170000938787B65CD0971719
:1041800000009387E7B81CD497170000938727BDDA
:104190005CD4971700009387E7BF00D01CD8B240CB
:1041A00022444101828097050000938525F3A9A24E
:1041B000411126C2130680069384F5FFB384C4021E
:1041C0004AC02E8922C406C69385440781262A84C4
:1041D00001CD2320050023222501310508C41386C3
:1041E00084068145EFC0CF812285B24022449244AB
:1041F0000249410182801C4DADE3411106C622C433
:1042000097070000938767FA1CD59387C1819C4369
:104210002324050423260504232805046314F5003C
:1042200085471CCD2A841D2848C02285052808C43E
:1042300022852D2048C44840014691450137084455
:104240000546A545E53D48440946C945C53D854760
:104250001CCCB2402244410182808280411193876C
:10426000C18126C284434AC006C69C4C22C42A8906
:1042700099E326854937938484048044DC40FD1704
:1042800063D607009C40B9CF8440C5BF0317C40064
:1042900039E7C1778507232204062320040023225F
:1042A0000400232404005CC423280400232A0400FF
:1042B000232C0400214681451305C405EFB05FF4AB
:1042C000232A0402232C04022324040423260404A6
:1042D0002285B24022449244024941018280130463
:1042E000840671BF91454A85E13588C051FDB147CB
:1042F0002320F9000144E9BF797122D44AD052CC7D
:1043000056CA5AC85EC606D626D24ECE2A8AAE8A6B
:10431000130485040149054BFD5B09ECB25022549E
:104320004A8592540259F249624AD24A424BB24BF0
:1043300045618280044483294400FD1963D4090047
:104340000040E1BF83D7C400637BFB008397E40098
:1043500063877701A6855285829A3369A900938481
:104360008406E1BF1971A6DAAE848395E500A2DC6C
:1043700086DE328463DC050083D7C40023A00600F8
:1043800093F7070885E7930700401DA0300836C65D
:10439000EF00D026B246E34105FE7247BD67F98FB4
:1043A0007977BA9793B717009CC2F1BF93070004BF
:1043B0001CC0F6506654D65401450961828083D7EB
:1043C000C500011122CC06CE26CA4AC8898B2E848C
:1043D00089CF930774041CC01CC885475CC8F24091
:1043E0006244D24442490561828074003000AA844C
:1043F000953FA2452A892685112A01ED8317C4001D
:1044000013F7072069FFF19B93E727002316F400B9
:10441000C9B797070000938747D99CD48357C40036
:1044200008C008C893E707082316F400A2475CC831
:10443000B24791CF8315E4002685EF00501F01C9D4
:104440008357C400F19B93E717002316F4008357AA
:10445000C4003369F9002316240151B7DDC583A7D1
:10446000C5FF411122C406C626C21384C5FF63D30B
:1044700007003E94AA84EF00702397D7FF1F93870D
:1044800027149C4391EF2322040097D7FF1F23A9F1
:1044900087122244B2402685924441016F003021A8
:1044A000637EF40014403307D4006396E70098431A
:1044B000DC43369718C05CC0C9BFBA87D84319C35C
:1044C000E37DE4FE94433386D700631F86001040EB
:1044D000B29694C33386D700E31DC7FA10435843FE
:1044E000B29694C3D8C375B76375C400B1479CC076
:1044F0004DB71040B306C4006316D70014435843A9
:10450000B29614C058C0C0C369B78280011126CAD0
:1045100093843500F19806CE22CC4AC84EC6A10439
:10452000B14763F9F404B14463E8B4042A89EF00A5
:10453000F01797D7FF1F9387A70898433A8439E469
:1045400097D7FF1F938707089C4381EB81454A85D6
:10455000A92F97D7FF1F23A7A706A6854A85B127AE
:10456000FD59631B3507B1472320F9004A85EF0049
:10457000101429A0E3DA04FAB1471CC10145F24046
:104580006244D2444249B249056182801C40858F11
:1045900063C10704AD4663F6F6001CC03E9404C038
:1045A00001A85C406315870217D7FF1F232AF70075
:1045B0004A85EF00D00F1305B400930744006199BA
:1045C0003307F5404DDF3A94898F1CC04DBF5CC363
:1045D000C5B722874040A5B7130435007198E300A2
:1045E00085FCB305A4404A85C925E31A35FBA5BF60
:1045F0001C46FD171CC663DA0700184E63C5E700AA
:10460000A9476394F5006FF0AFFC1C422E85138719
:10461000170018C22380B7008280011122CC26CA5D
:104620004AC84EC652C406CE2A89AE893284B30423
:10463000D6007D5A63149400014509A883450400FF
:104640004E864A8575370504E31645FFF2406244FD
:10465000D2444249B249224A05618280357122CD55
:1046600026CB4AC94EC706CF52C556C35AC1DEDE55
:10467000E2DCE6DAAA89AE843289368409C51C4DAB
:1046800099E3EFF05FB797170000938767AF639BDD
:10469000F40C83A4490083D7C400A18BF5C79C48C0
:1046A000E5C793070002A304F1029307000302D2B7
:1046B0002305F10222C6930B5002971A0000938A39
:1046C0002AB0054C294B4A848347040099C3639060
:1046D000770FB30C2441638D0C00E6864A86A685CD
:1046E0004E85253FFD576306F51E9256E69636D257
:1046F00083470400638F071CFD571309140002C889
:1047000002CE3ECA02CCA309010482D4834509002B
:1047100015465685BD2F13041900C24759E913F7F2
:10472000070109C713070002A309E10413F7870073
:1047300009C71307B002A309E10483460900130760
:10474000A0026380E608F2474A8481462546034773
:10475000040093051400130707FD6379E60AB5CA40
:104760003ECE85A897170000938787A36395F40032
:1047700083A489000DB7971700009387679EE39C79
:10478000F4F083A4C90001BFA6854E85EFF04FF079
:1047900009D97D55FA406A44DA444A49BA492A4A55
:1047A0009A4A0A4BF65B665CD65C0D618280050412
:1047B00021BF330555413315AC00C98F3EC822894E
:1047C000B1B7324793064700184336C6634907021C
:1047D0003ACE034704009307E002631FF704034740
:1047E00014009307A002631BF702B2470904138762
:1047F00047009C433AC663C107023ECA35A8330747
:10480000E04093E727003ACE3EC8E1B7B38767039D
:1048100085462E84BA9725BFFD57C5B7050402CA41
:10482000814681472546034704009305140013077A
:1048300007FD6376E606F1F2834504000D46171581
:10484000000013056598B12511CD971700009387D7
:10485000A7971D8D93070004B397A7004245050451
:104860005D8D2AC8834504001946171500001305FD
:10487000E595130914002304B102212D3DC197B71A
:10488000FFFF9387277895E74247B24713770710D2
:1048900009CF91073EC69257D2973ED22DB5B38726
:1048A000670385462E84BA97BDBF9D07E19BA1078C
:1048B000D5B7780097060000938666D626860C0842
:1048C0004E8597000000E7000000FD572A8AE31498
:1048D000F5FC83D7C40093F70704E39C07EA12555D
:1048E00055BD780097060000938666D326860C088F
:1048F0004E85012AD9BF797156CA9C49BA8A984512
:1049000022D426D24ECE52CC06D64AD05AC85EC643
:10491000AA892E84B284368A63D3E700BA879CC002
:104920000347340419C385079CC01C4093F7070252
:1049300081C79C4089079CC0032904001379690042
:10494000631A0900130B9401FD5B5C449840998F36
:10495000634CF9041C408346340493F70702B336D2
:10496000D000A5EB13063404D2854E85829AFD57FC
:104970006303F5041C4011469840998B54448144CC
:104980006397C700B384E64063D3040081441C44AA
:1049900018486354F700998FBE94014969047D5B00
:1049A00063982405014509A885465A86D2854E8517
:1049B000829A631E75017D55B25022549254025959
:1049C000F249624AD24A424BB24B456182800509A4
:1049D000ADBF3307D40013060003A301C704034788
:1049E000540493871600A2978906A381E7049DBF0C
:1049F00085462286D2854E85829AE30E65FB05099F
:104A000045B7797122D426D24AD04ECE06D652CCA2
:104A100056CA5AC8B68983C685019307900632895B
:104A2000AA842E8413863504638DF60263E2D706CA
:104A3000930780056387F61863EDD700638006222D
:104A400093073004638EF60A930A24042301D404E6
:104A5000C9A0930730066385F60A93074006E395DD
:104A6000F6FE1C40084393F6070893054500C5C6AB
:104A70001C410CC363D807001307D002B307F040F2
:104A8000A301E404970600009386C67429476DA825
:104A9000930700076383F61663E5D7029307E006E2
:104AA000638AF6189307F006E390F6FA0C401C436D
:104AB00013F80508138547006307080608C39C43DD
:104AC0008DA893075007E383F6FE93078007638A58
:104AD000F61293073007E399F6F61C43D04181455F
:104AE0009386470014C383AA070056855D2601C537
:104AF0003305554148C05C401CC8A301040471A89B
:104B00001C43930A2404938647009C4314C3230147
:104B1000F4048547D5B793F607041C410CC3B9DAF2
:104B2000C207C18781BF93F5050408C3C9D983D7DC
:104B300007001307F0066387E60E970600009386CA
:104B400066692947A30104044C400CC463C50500F1
:104B500008406D9908C099E3B28A91CDB28AB3F545
:104B6000E702FD1AB69583C505002380BA00B3D5C8
:104B7000E70263FFE70AA147631EF7001C40858B2D
:104B800091CB58401C4863C7E70093070003A38FED
:104B9000FAFEFD1A3306564110C84E87CA867000C9
:104BA000A2852685893B7D5A631E450B7D55B250F3
:104BB000225492540259F249624AD24A424B456108
:104BC0008280A382D504970600009386A6600C40DD
:104BD000084313F805081C411105630D080208C3BA
:104BE00013F7150001C793E505020CC04147B9FB57
:104BF0000C4093F5F5FD0CC0B1B79C4193E707025B
:104C00009CC193078007A302F404970600009386D3
:104C1000A65D75BF13F8050408C3E30308FCC207CB
:104C2000C1837DBF970600009386C65A214719BFEE
:104C3000AE8735B794411C43CC4913F80608138559
:104C400047006306080008C39C438CC301A808C33F
:104C500093F606049C43F5DA2390B700232804005A
:104C6000B28A25BF14485686CA8526858299E30FE5
:104C700045F31C40898B8DE7B2474844E359F5F270
:104C80003E8535B785465686CA8526858299E30FC7
:104C900065F1050A5C443247998FE345FAFEE9BFA6
:104CA000014A930A94017D5BF5B7411122C42A841D
:104CB0002E8597F7FF1F23AB071A06C6EFE01FF1FB
:104CC000FD576319F50097F7FF1F9387271A9C4339
:104CD00091C31CC0B240224441018280411122C4D0
:104CE0002E848395E50006C6E122634905007C48D1
:104CF000AA977CC8B2402244410182808357C400F5
:104D00007D777D17F98F2316F400EDB783D7C500A3
:104D1000011122CC26CA4AC84EC606CE93F7071008
:104D2000AA842E843289B68991C78395E500894685
:104D3000014635228357C4007D777D17F98F2316EE
:104D4000F4008315E4006244F240CE864A86B249FC
:104D500042492685D24405613DA8411122C42E84D2
:104D60008395E50006C6E528FD570357C400631B7D
:104D7000F500FD77FD17F98F2316F400B2402244A9
:104D8000410182808567D98F2316F40068C8FDB77A
:104D90008395E50025A8411122C42A842E85B28579
:104DA000368697F7FF1F23A3070C06C6EFE05FDDEB
:104DB000FD576319F50097F7FF1F9387270B9C4357
:104DC00091C31CC0B240224441018280411122C4DF
:104DD0002A842E8597F7FF1F23AA070806C61922E3
:104DE000FD576319F50097F7FF1F938727089C432A
:104DF00091C31CC0B240224441018280411122C4AF
:104E00002A842E85B28597F7FF1F23A1070606C6C1
:104E1000D520FD576319F50097F7FF1F9387070506
:104E20009C4391C31CC0B240224441018280411185
:104E300022C42A842E8597F7FF1F23A9070206C6DE
:104E4000D120FD576319F50097F7FF1F93870702DD
:104E50009C4391C31CC0B240224441018280411155
:104E600022C42A842E85B285368697F7FF1F23AF8A
:104E700007FE06C64520FD576319F50097F7FF1F8B
:104E80009387C7FE9C4391C31CC0B240224441019A
:104E9000828093F5F50F2A966314C5000145828040
:104EA00083470500E38DB7FE0505FDB7828082804C
:104EB000411122C42A842E85B285368697F7FF1FBA
:104EC00023A607FA06C6B928FD576319F50097F718
:104ED000FF1F9387A7F99C4391C31CC0B240224493
:104EE000410182809307800517F7FF1F2320F7F801
:104EF0007D5582809307800517F7FF1F2328F7F65B
:104F00007D5582809307800517F7FF1F2320F7F652
:104F1000014582809307800517F7FF1F2328F7F4C8
:104F20007D5582809307800517F7FF1F2320F7F434
:104F30007D558280F212000006140000EC1400007F
:104F40007A16000024170000BE1E0000BE1E0000DE
:104F5000BE1E0000BE1E0000BE1E00007617000030
:104F6000BE1E0000BE1E0000BE1E0000BE1E0000D1
:104F7000BE1E00002618000022190000461900007D
:104F8000DE190000301E00004552524F5200000052
:104F9000486172644661756C745F48616E646C65EB
:104FA000720000004E4D495F48616E646C6572008E
:104FB0005553425F4A5441475F5350495F56312E23
:104FC00025640A0045646974204461746520616E3B
:104FD000642054696D652069733A204D6179202001
:104FE000372032303232202031353A33393A3031BD
:104FF000000000004A54414720496E6974000000D7
:105000004A5441475F4D6F64653A25780A000000B5
:105010004A5441475F53706565643A25780A000039
:1050200053504920496E69740000000055534248AE
:105030005320496E697400004D61696E00000000E4
:10504000EC2E00005E2C00004E2B0000802D000096
:105050004E2B00001C2C0000AA2A00004E2B000042
:105060002A2C0000462C0000E62E0000E62E000050
:10507000C42A0000E22A0000362B00004E2B00005C
:105080004E2B0000BE2B0000D02B00000902200098
:1050900001010080320904000002FFFFFF00070544
:1050A00002024000000705810240000009022000C2
:1050B00001010080320904000002FFFFFF00070524
:1050C0000202000200070581020002001201000234
:1050D000FF805540861ADE550100010203010000E1
:1050E0000E037700630068002E0063006E0000006E
:1050F0002C03550053004200200054006F00200094
:105100004800690067006800530070006500650092
:10511000640020004A00540041004700160330009C
:1051200031003200330034003500360037003800DB
:10513000390000000A060002FF00FF4001000000E5
:105140005553422052657365740000005553422048
:1051500053555350454E4432212121000000000098
:10516000000000000000000000000000000000003F
:10517000000000000000000000000000000000002F
:10518000000000000000000000000000000000001F
:10519000000000000000000000000000000000000F
:1051A00000000000000000000000000000000000FF
:1051B000000000000000000000000000232D302B44
:1051C00020000000686C4C0065666745464700009B
:1051D000303132333435363738394142434445462D
:1051E00000000000303132333435363738396162EF
:0851F000636465660000000025
:1051F8000907000000000000000000000000000097
:105208000000000000000000000000000000000096
:105218000907000000000000000000000000000076
:105228000000000000000000000000000000000076
:105238000000000001020304010203040607080934
:10524800000000007C5100009C5100005C510000EF
:105258000000000000000000000000000000000046
:105268000000000000000000000000000000000036
:105278000000000000000000000000000000000026
:105288000000000000000000000000000000000016
:105298000000000000000000000000000000000006
:1052A800004495080101FF010002000002040608FD
:1052B8006C3E002050000020040309045000002028
:1052C80000000000000000000000000000000000D6
:1052D80000000000000000000000000000000000C6
:1052E80000000000000000000000000000000000B6
:1052F80000000000000000000000000000000000A6
:00000001FF
